{
  "transactions": [
    {
      "hash": "0x0c94b2b9a9f16e961e0671d3f1400d332cb749fe02d38256901df6ac8d374273",
      "transactionType": "CALL",
      "contractName": null,
      "contractAddress": "0x54bf15abafc944635ab657ff8e5f1a1c16789b27",
      "function": "withdrawFactoryFees(address)",
      "arguments": [
        "0xffD7Ea1Cfc86386862Fb5841dFc3D67bC97910b5"
      ],
      "transaction": {
        "from": "0xffd7ea1cfc86386862fb5841dfc3d67bc97910b5",
        "to": "0x54bf15abafc944635ab657ff8e5f1a1c16789b27",
        "gas": "0x1250d",
        "value": "0x0",
        "input": "0xfdb04fcd000000000000000000000000ffd7ea1cfc86386862fb5841dfc3d67bc97910b5",
        "nonce": "0x26",
        "chainId": "0x2105"
      },
      "additionalContracts": [],
      "isFixedGasLimit": false
    },
    {
      "hash": "0x1e00da0356682991fc89215e7ca02ccca3c846db24485382c0ff6dd26fc1009c",
      "transactionType": "CALL",
      "contractName": null,
      "contractAddress": "0x0fcd9457e434e5d956a197a4810f6e706317f5f7",
      "function": "emergencyWithdraw(uint256)",
      "arguments": [
        "300000"
      ],
      "transaction": {
        "from": "0xffd7ea1cfc86386862fb5841dfc3d67bc97910b5",
        "to": "0x0fcd9457e434e5d956a197a4810f6e706317f5f7",
        "gas": "0x10a90",
        "value": "0x0",
        "input": "0x5312ea8e00000000000000000000000000000000000000000000000000000000000493e0",
        "nonce": "0x27",
        "chainId": "0x2105"
      },
      "additionalContracts": [],
      "isFixedGasLimit": false
    },
    {
      "hash": "0xafa2a400e43ed8df2a9812084c1cafeeba39fb407375b28db81826150173505e",
      "transactionType": "CALL",
      "contractName": null,
      "contractAddress": "0x833589fcd6edb6e08f4c7c32d4f71b54bda02913",
      "function": "transfer(address,uint256)",
      "arguments": [
        "0xffD7Ea1Cfc86386862Fb5841dFc3D67bC97910b5",
        "300000"
      ],
      "transaction": {
        "from": "0xffd7ea1cfc86386862fb5841dfc3d67bc97910b5",
        "to": "0x833589fcd6edb6e08f4c7c32d4f71b54bda02913",
        "gas": "0xd5ff",
        "value": "0x0",
        "input": "0xa9059cbb000000000000000000000000ffd7ea1cfc86386862fb5841dfc3d67bc97910b500000000000000000000000000000000000000000000000000000000000493e0",
        "nonce": "0x28",
        "chainId": "0x2105"
      },
      "additionalContracts": [],
      "isFixedGasLimit": false
    },
    {
      "hash": "0x3ad0182693450265bf54259ef50bf686e70f407d859682dcdea212a5e0fcbd0d",
      "transactionType": "CALL",
      "contractName": null,
      "contractAddress": "0x60ebe231143ec9215bb832a6dae9a625d4091b30",
      "function": "emergencyWithdraw()",
      "arguments": [],
      "transaction": {
        "from": "0xffd7ea1cfc86386862fb5841dfc3d67bc97910b5",
        "to": "0x60ebe231143ec9215bb832a6dae9a625d4091b30",
        "gas": "0x10a44",
        "value": "0x0",
        "input": "0xdb2e21bc",
        "nonce": "0x29",
        "chainId": "0x2105"
      },
      "additionalContracts": [],
      "isFixedGasLimit": false
    },
    {
      "hash": "0x667881b40578fe4056d5f9a2cdcc506923014534ebb595de91c5e4c94a97f385",
      "transactionType": "CALL",
      "contractName": null,
      "contractAddress": "0xc88e31bb3bc9cb8f12332a3164fc4bc7c9360d5b",
      "function": "emergencyWithdraw()",
      "arguments": [],
      "transaction": {
        "from": "0xffd7ea1cfc86386862fb5841dfc3d67bc97910b5",
        "to": "0xc88e31bb3bc9cb8f12332a3164fc4bc7c9360d5b",
        "gas": "0x10a44",
        "value": "0x0",
        "input": "0xdb2e21bc",
        "nonce": "0x2a",
        "chainId": "0x2105"
      },
      "additionalContracts": [],
      "isFixedGasLimit": false
    }
  ],
  "receipts": [
    {
      "status": "0x1",
      "cumulativeGasUsed": "0x4db8e4",
      "logs": [
        {
          "address": "0x833589fcd6edb6e08f4c7c32d4f71b54bda02913",
          "topics": [
            "0xddf252ad1be2c89b69c2b068fc378daa952ba7f163c4a11628f55a4df523b3ef",
            "0x00000000000000000000000054bf15abafc944635ab657ff8e5f1a1c16789b27",
            "0x000000000000000000000000ffd7ea1cfc86386862fb5841dfc3d67bc97910b5"
          ],
          "data": "0x00000000000000000000000000000000000000000000000000000000004cc070",
          "blockHash": "0x945facc22c408b16b25e0140630cf7d5e6163fddad514e209b134ea1d534db52",
          "blockNumber": "0x20ee9bd",
          "blockTimestamp": "0x68a8305d",
          "transactionHash": "0x0c94b2b9a9f16e961e0671d3f1400d332cb749fe02d38256901df6ac8d374273",
          "transactionIndex": "0x1f",
          "logIndex": "0x63",
          "removed": false
        },
        {
          "address": "0x54bf15abafc944635ab657ff8e5f1a1c16789b27",
          "topics": [
            "0xfda76dcb07a2654017b98ba0fccee5ce51d60f90338c3b254d15fa3567745af8",
            "0x000000000000000000000000ffd7ea1cfc86386862fb5841dfc3d67bc97910b5"
          ],
          "data": "0x00000000000000000000000000000000000000000000000000000000004cc070",
          "blockHash": "0x945facc22c408b16b25e0140630cf7d5e6163fddad514e209b134ea1d534db52",
          "blockNumber": "0x20ee9bd",
          "blockTimestamp": "0x68a8305d",
          "transactionHash": "0x0c94b2b9a9f16e961e0671d3f1400d332cb749fe02d38256901df6ac8d374273",
          "transactionIndex": "0x1f",
          "logIndex": "0x64",
          "removed": false
        }
      ],
      "logsBloom": "0x00000000000004000000000000000000000000000000000000000000000000000000000000000000000000000000100000000000000000004000000000000000000000000000000000000008000000000000000002080000000000000000000000800000000000000000000000000000000000000000010000000010000000000000000000000000000000000000000000100000000000000000000000000000000000000000000000000000000400000000000000000000000200000000000804000002000000000000000000000080000000000000000000000040400000000000000000000000000000000000000000000000000000000000000000000000",
      "type": "0x2",
      "transactionHash": "0x0c94b2b9a9f16e961e0671d3f1400d332cb749fe02d38256901df6ac8d374273",
      "transactionIndex": "0x1f",
      "blockHash": "0x945facc22c408b16b25e0140630cf7d5e6163fddad514e209b134ea1d534db52",
      "blockNumber": "0x20ee9bd",
      "gasUsed": "0xc861",
      "effectiveGasPrice": "0x9db4c",
      "from": "0xffd7ea1cfc86386862fb5841dfc3d67bc97910b5",
      "to": "0x54bf15abafc944635ab657ff8e5f1a1c16789b27",
      "contractAddress": null,
      "l1BaseFeeScalar": "0x8dd",
      "l1BlobBaseFee": "0x1",
      "l1BlobBaseFeeScalar": "0x101c12",
      "l1Fee": "0x34180f11",
      "l1GasPrice": "0xe5970b0",
      "l1GasUsed": "0x640"
    },
    {
      "status": "0x1",
      "cumulativeGasUsed": "0x4e79e2",
      "logs": [
        {
          "address": "0x833589fcd6edb6e08f4c7c32d4f71b54bda02913",
          "topics": [
            "0xddf252ad1be2c89b69c2b068fc378daa952ba7f163c4a11628f55a4df523b3ef",
            "0x0000000000000000000000000fcd9457e434e5d956a197a4810f6e706317f5f7",
            "0x000000000000000000000000ffd7ea1cfc86386862fb5841dfc3d67bc97910b5"
          ],
          "data": "0x00000000000000000000000000000000000000000000000000000000000493e0",
          "blockHash": "0x945facc22c408b16b25e0140630cf7d5e6163fddad514e209b134ea1d534db52",
          "blockNumber": "0x20ee9bd",
          "blockTimestamp": "0x68a8305d",
          "transactionHash": "0x1e00da0356682991fc89215e7ca02ccca3c846db24485382c0ff6dd26fc1009c",
          "transactionIndex": "0x20",
          "logIndex": "0x65",
          "removed": false
        }
      ],
      "logsBloom": "0x00000000000000000000000000000000000000000000000000000000000000000000000000000000000000000000100000000000000000000000000000000000000000000000000000000008000000000000000002080000000000000000000000800000000000000000000000000000000000000000000000000010000000000000000000000000000000000000000000000000000000000000000000000000000000000000000000000000000000000000000000000000000000000000001004000002000000000000000000000082000000000000000000000000000000000000000000000000000000000000100000000000000000000000000000000000",
      "type": "0x2",
      "transactionHash": "0x1e00da0356682991fc89215e7ca02ccca3c846db24485382c0ff6dd26fc1009c",
      "transactionIndex": "0x20",
      "blockHash": "0x945facc22c408b16b25e0140630cf7d5e6163fddad514e209b134ea1d534db52",
      "blockNumber": "0x20ee9bd",
      "gasUsed": "0xc0fe",
      "effectiveGasPrice": "0x9db4c",
      "from": "0xffd7ea1cfc86386862fb5841dfc3d67bc97910b5",
      "to": "0x0fcd9457e434e5d956a197a4810f6e706317f5f7",
      "contractAddress": null,
      "l1BaseFeeScalar": "0x8dd",
      "l1BlobBaseFee": "0x1",
      "l1BlobBaseFeeScalar": "0x101c12",
      "l1Fee": "0x34180f11",
      "l1GasPrice": "0xe5970b0",
      "l1GasUsed": "0x640"
    },
    {
      "status": "0x1",
      "cumulativeGasUsed": "0x4f0c35",
      "logs": [
        {
          "address": "0x833589fcd6edb6e08f4c7c32d4f71b54bda02913",
          "topics": [
            "0xddf252ad1be2c89b69c2b068fc378daa952ba7f163c4a11628f55a4df523b3ef",
            "0x000000000000000000000000ffd7ea1cfc86386862fb5841dfc3d67bc97910b5",
            "0x000000000000000000000000ffd7ea1cfc86386862fb5841dfc3d67bc97910b5"
          ],
          "data": "0x00000000000000000000000000000000000000000000000000000000000493e0",
          "blockHash": "0xebdee3c88498567765b2a7fd08897a82ef87da77abf9c0b0a3f56b82049676ac",
          "blockNumber": "0x20ee9bd",
          "blockTimestamp": "0x68a8305d",
          "transactionHash": "0xafa2a400e43ed8df2a9812084c1cafeeba39fb407375b28db81826150173505e",
          "transactionIndex": "0x21",
          "logIndex": "0x66",
          "removed": false
        }
      ],
      "logsBloom": "0x00000000000000000000000000000000000000000000000000000000000000000000000000000000000000000000100000000000000000000000000000000000000000000000000000000008000000000000000002080000000000000000000000800000000000000000000000000000000000000000000000000010000000000000000000000000000000000000000000000000000000000000000000000000000000000000000000000000000000000000000000000000000000000000000004000002000000000000000000000080000000000000000000000000000000000000000000000000000000000000000000000000000000000000000000000000",
      "type": "0x2",
      "transactionHash": "0xafa2a400e43ed8df2a9812084c1cafeeba39fb407375b28db81826150173505e",
      "transactionIndex": "0x21",
      "blockHash": "0xebdee3c88498567765b2a7fd08897a82ef87da77abf9c0b0a3f56b82049676ac",
      "blockNumber": "0x20ee9bd",
      "gasUsed": "0x9253",
      "effectiveGasPrice": "0x9db4c",
      "from": "0xffd7ea1cfc86386862fb5841dfc3d67bc97910b5",
      "to": "0x833589fcd6edb6e08f4c7c32d4f71b54bda02913",
      "contractAddress": null,
      "l1BaseFeeScalar": "0x8dd",
      "l1BlobBaseFee": "0x1",
      "l1BlobBaseFeeScalar": "0x101c12",
      "l1Fee": "0x34180f11",
      "l1GasPrice": "0xe5970b0",
      "l1GasUsed": "0x640"
    },
    {
      "status": "0x1",
      "cumulativeGasUsed": "0x4fccfb",
      "logs": [
        {
          "address": "0x833589fcd6edb6e08f4c7c32d4f71b54bda02913",
          "topics": [
            "0xddf252ad1be2c89b69c2b068fc378daa952ba7f163c4a11628f55a4df523b3ef",
            "0x00000000000000000000000060ebe231143ec9215bb832a6dae9a625d4091b30",
            "0x000000000000000000000000ffd7ea1cfc86386862fb5841dfc3d67bc97910b5"
          ],
          "data": "0x00000000000000000000000000000000000000000000000000000000001a8ce0",
          "blockHash": "0xebdee3c88498567765b2a7fd08897a82ef87da77abf9c0b0a3f56b82049676ac",
          "blockNumber": "0x20ee9bd",
          "blockTimestamp": "0x68a8305d",
          "transactionHash": "0x3ad0182693450265bf54259ef50bf686e70f407d859682dcdea212a5e0fcbd0d",
          "transactionIndex": "0x22",
          "logIndex": "0x67",
          "removed": false
        }
      ],
      "logsBloom": "0x00000000000000000000000000010000000000000000000000000004000000000000000000000000000000000000100000000000000000000000000000000000000000000000000000000008000000000000000002080000000000000000000000800000000000000000000000000000000000000000000000000010000000000000000000000000000000000000000000000000000000000000000000000000000000000000000000000000000000000000000000000000000000000000000004000002000000000000000000000080008000000000000000000000000000000000000000000000000000000000000000000000000000000000000000000000",
      "type": "0x2",
      "transactionHash": "0x3ad0182693450265bf54259ef50bf686e70f407d859682dcdea212a5e0fcbd0d",
      "transactionIndex": "0x22",
      "blockHash": "0xebdee3c88498567765b2a7fd08897a82ef87da77abf9c0b0a3f56b82049676ac",
      "blockNumber": "0x20ee9bd",
      "gasUsed": "0xc0c6",
      "effectiveGasPrice": "0x9db4c",
      "from": "0xffd7ea1cfc86386862fb5841dfc3d67bc97910b5",
      "to": "0x60ebe231143ec9215bb832a6dae9a625d4091b30",
      "contractAddress": null,
      "l1BaseFeeScalar": "0x8dd",
      "l1BlobBaseFee": "0x1",
      "l1BlobBaseFeeScalar": "0x101c12",
      "l1Fee": "0x34180f11",
      "l1GasPrice": "0xe5970b0",
      "l1GasUsed": "0x640"
    },
    {
      "status": "0x1",
      "cumulativeGasUsed": "0x508dc1",
      "logs": [
        {
          "address": "0x833589fcd6edb6e08f4c7c32d4f71b54bda02913",
          "topics": [
            "0xddf252ad1be2c89b69c2b068fc378daa952ba7f163c4a11628f55a4df523b3ef",
            "0x000000000000000000000000c88e31bb3bc9cb8f12332a3164fc4bc7c9360d5b",
            "0x000000000000000000000000ffd7ea1cfc86386862fb5841dfc3d67bc97910b5"
          ],
          "data": "0x00000000000000000000000000000000000000000000000000000000000d4670",
          "blockHash": "0x945facc22c408b16b25e0140630cf7d5e6163fddad514e209b134ea1d534db52",
          "blockNumber": "0x20ee9bd",
          "blockTimestamp": "0x68a8305d",
          "transactionHash": "0x667881b40578fe4056d5f9a2cdcc506923014534ebb595de91c5e4c94a97f385",
          "transactionIndex": "0x23",
          "logIndex": "0x68",
          "removed": false
        }
      ],
      "logsBloom": "0x00000000000000000000000000000000000000000000000000000000000000000000000000000000000000000000100000000000000000000000004000000000000000000000000000000008000000000000000002080000000000000000000000800000000000000000000000000000000000000000000000000010000000000000000000000000000000000000000000000000000000000000000000000000000000000000000000000000000000000000000000000000000000000000000084000002000000000000000000000080000000000000000000000000000000000000000000000000000000000000000000000000000000000020000000000000",
      "type": "0x2",
      "transactionHash": "0x667881b40578fe4056d5f9a2cdcc506923014534ebb595de91c5e4c94a97f385",
      "transactionIndex": "0x23",
      "blockHash": "0x945facc22c408b16b25e0140630cf7d5e6163fddad514e209b134ea1d534db52",
      "blockNumber": "0x20ee9bd",
      "gasUsed": "0xc0c6",
      "effectiveGasPrice": "0x9db4c",
      "from": "0xffd7ea1cfc86386862fb5841dfc3d67bc97910b5",
      "to": "0xc88e31bb3bc9cb8f12332a3164fc4bc7c9360d5b",
      "contractAddress": null,
      "l1BaseFeeScalar": "0x8dd",
      "l1BlobBaseFee": "0x1",
      "l1BlobBaseFeeScalar": "0x101c12",
      "l1Fee": "0x34180f11",
      "l1GasPrice": "0xe5970b0",
      "l1GasUsed": "0x640"
    }
  ],
  "libraries": [],
  "pending": [],
  "returns": {},
  "timestamp": 1755852894,
  "chain": 8453,
  "commit": "e27be16"
}